:020000040800F2
:1000000028120020D5000008E11200082311000882
:1000100000000000000000000000000000000000E0
:100020000000000000000000000000002B1300088A
:100030000000000000000000291300082D13000834
:10004000E7000008E7000008E7000008E7000008F4
:10005000E7000008E7000008E7000008E7000008E4
:1000600000000000E700000809020008E70000089F
:10007000E7000008E700000800000000E7000008B3
:1000800000000000E7000008000000000000000081
:10009000E700000800000000E7000008E700000893
:1000A000E7000008E7000008E7000008E700000894
:1000B000E700000825110008000000000000000013
:1000C0000348854600F08EF80048004727180008CE
:1000D000281200200448804704480047FEE7FEE756
:1000E000FEE7FEE7FEE7FEE7B1130008C1000008E7
:1000F00030B50B46014600202022012409E00D46C0
:10010000D5409D4205D31D469540491B2546954047
:1001100040191546521E002DF1DC30BDF0B51FB45C
:100120000646002082B005464024019100901BE065
:10013000019922460F46304600F042F8049A059B8A
:10014000801A994110D310461946224600F028F82B
:10015000361A8F410197224601200021009F00F0AE
:100160001FF838184D4100902046641E0028DFDC3F
:10017000019B00982946324607B0F0BDD2B201E09B
:100180000270401C491EFBD270470022F6E710B5F2
:1001900013460A4604461946FFF7F0FF204610BDF5
:1001A00010B5202A04DB0146203A9140002010BD02
:1001B000914020239C1A0346E3401943904010BD10
:1001C00010B5202A04DB0846203AD040002110BD9B
:1001D0000B46D340D0402024A21A91400843194630
:1001E00010BD0000064C0125064E05E0E36807CC73
:1001F0002B430C3C98471034B442F7D3FFF764FF0D
:100200006C1800088C18000810B5024800F02BF894
:1002100010BD000088010020704770B50024014621
:1002200020314A79022A03D00421C163012418E055
:10023000026813680E25AB431360026813685B08FD
:100240005B001360436C1C221340012215469D4045
:10025000036C5D604A7100220A71816B002900D035
:100260008847204670BDF0B4016C0D6801680C68C9
:10027000466C1C2304221E401746B7402F420ED066
:1002800067070CD50C68A40602D40C6894430C6074
:10029000416C19408A40016C4A60016B1AE00227E8
:1002A000B74002462F402032002F17D0A70715D5A0
:1002B0000C68A40605D40C680A25AC430C60012127
:1002C0005171446C02211C40036CA1405960002113
:1002D0001171C16A002918D0F0BC08470827B7403F
:1002E0002F4212D0240710D50C680E25AC430C60A9
:1002F000446C01211C400B46A340046C6360C16345
:10030000517100211171416BE4E7F0BC70470000AE
:1003100070B504003CD01F48256814212818FFF749
:10032000E7FE800060641C482064022120462030E3
:100330000246417129681948E3680140A06866696E
:100340001843236933431843A3691843E3691843E7
:10035000236A1843084328600121A0688903884262
:1003600010D00D488030836A656C1C210D400F262B
:10037000AE40B3438362656C63680D40816AAB40F5
:100380000B4383620020E06301215171107170BD45
:10039000012070BDF8FFFDBF000002400F80FFFF8D
:1003A000F8B500230124A2E027469F403A4070D0D0
:1003B0004D68022D01D0122D14D1DD08AD002D188D
:1003C00000952D6A5E07AC46F50E0F26AE46AE4090
:1003D0006546B543AC460E697546AE4065462E434C
:1003E000009D2E624D68012D05D0022D03D0112DE8
:1003F00001D0122D16D185680326AC465D00AE46AD
:10040000AE406546B543AC46CE687546AE406546DF
:100410002E43866046680D79BE43ED06ED0F9D4084
:100420003543456006685F000325BD40AE46AE43D8
:100430000D79B446AE07B60FBE4065462E43066042
:10044000C6687546AE438D68BD403543C5604D688E
:10045000ED004BD5294D6E6B26436E639E08284DEB
:10046000B6007519AC46AD689E07360F0F27B7402A
:10047000BD4305273F07B84201D1002715E0214FB2
:10048000B84201D1012710E01F4FB84202D1022724
:100490000BE02BE01D4FB84201D1032705E01C4FB4
:1004A000B84201D1052700E00627B7402F43654633
:1004B000AF60184D2E684F689643FF0300D5164372
:1004C0002E606E684F689643BF0300D516436E607A
:1004D000AE684F689643FF0200D51643AE60EE68E3
:1004E0004F689643BF0200D51643EE605B1C0A6856
:1004F0001546DD4000D057E7F8BD0000001002406F
:10050000000001400004005000080050000C0050A2
:10051000001C005000040140002A01D08161704796
:1005200081627047014800687047000000000020A9
:1005300002480168491C016070470000000000206B
:1005400010B508480024016840221143016020468C
:1005500000F00AF8002801D0012401E000F01CF8A6
:10056000204610BD0020024070B5054609487D2197
:100570000024C9000068FFF7BBFD00F065FC0028FF
:1005800001D0012404E000222946501E00F01AF890
:10059000204670BD040000200448416B0122114335
:1005A0004163816B02041143816370470010024074
:1005B000C106C90E0120884001490860704700004B
:1005C00000E100E010B500F08DFE10BDF8B5044666
:1005D0000078544D800672D5524E0027403EB06BD5
:1005E000C00004D4B06BA9050843B06301274E488E
:1005F0000168C90511D40168821511430160FFF734
:1006000091FF009005E0FFF78DFF0099401A6428E4
:1006100037D845480068C005F5D53268032109057B
:1006200060680A400140914208D08103890F032984
:1006300004D13168890301D50120F8BD2A6903215D
:1006400009040A4022D0084090421FD0207880063A
:100650001CD528692A6988430121C9040A432A61F3
:100660002A698A432A612861C0050FD5FFF75AFF1E
:10067000009008E0FFF756FF0099411A2B4881428D
:1006800001D90320F8BD28698005F3D56168880386
:10069000800F032805D132680005824301400A43D8
:1006A00032602869032261681204114008432861FE
:1006B000002F04D0B16B012000078143B163207883
:1006C000C00705D0E868A168800880000843E8609A
:1006D0002078800705D5E8680C218843E168084345
:1006E000E8602078400706D5E8680321890288433E
:1006F00021690843E8602078000706D5E8680321EF
:100700000903884361690843E8602078000606D53C
:10071000E868032189048843A1690843E860002050
:10072000F8BD000040100240007000408813000037
:10073000F8B50E4605007DD053480068C007C00FCD
:10074000B0420AD25048016849084900314301606B
:100750000068C007C00FB04271D128784B4C8007A9
:1007600005D5E068F0218843A9680843E06028784F
:10077000C00752D06868022817D0032818D0216813
:10078000012818D08905002959DAE168890889000B
:100790000143E160FFF7C6FE69680746022912D0EF
:1007A00003291CD0012926D033E021688903EAE718
:1007B00021688901E7E74907E5E7FFF7B3FEC11BB9
:1007C0003348814223D8E0680007800F0228F4D123
:1007D00023E0FFF7A7FEC11B2D48814217D8E06830
:1007E0000007800F0328F4D117E0FFF79BFEC11B21
:1007F000274881420BD8E0680007800F0128F4D118
:100800000BE0FFF78FFEC11B2148814201D9032075
:10081000F8BDE0680007800FF3D11B480168C907E5
:10082000C90FB1420DD9016849084900314301603F
:10083000006800E003E0C007C00FB04201D0012013
:10084000F8BD2878400706D5E068072109028843EB
:10085000E9680843E0602878000707D5E0680721C9
:10086000C90288432969C9000843E06000F036F8EE
:10087000E168084A0906090F515CC840064908604A
:100880000020FFF771FEF8BD00200240001002407A
:100890008813000048180008040000200448054997
:1008A0000068C968044A4905490F515CC84070474F
:1008B00004000020001002406118000804480549A7
:1008C0000068C968044A8904490F515CC8407047F0
:1008D00004000020001002406118000810B5184AFA
:1008E000D1680C20084004280BD0082810D00C2810
:1008F00010D050680004410F0120C003491C8840FB
:1009000010BD1068C00601D50E4810BD0E4810BDC0
:100910000E4810BD88020E4B000F185C0902D36808
:10092000890F491CDB0301D5084A05E01268D2068D
:1009300001D5044A00E0044A5043FFF7D9FB10BD3B
:100940000010024000093D000024F40000127A006B
:1009500058180008FEB505007ED0FE4CE7680C2054
:10096000E66807400120000406402878C00747D009
:10097000082F05D00C2F0AD101200004864206D191
:10098000206880033CD568680028E5D038E0012065
:1009900069680004814203D121680143216011E0AC
:1009A000052301221B0492049942216802D11143BC
:1009B0002160F1E7814321602168014000912068B6
:1009C00090432060686800280DD0FFF7ABFD0090D1
:1009D00005E0FFF7A7FD0099401A64287AD820683F
:1009E0008003F6D50CE0FFF79DFD009005E0FFF7D2
:1009F00099FD0099401A6428F0D820688003F6D445
:100A00002878800755D50923E868042F0DD00C2FCE
:100A100001D1002E09D000283BD021689943014321
:100A20002160FFF77FFD064627E02168490701D5D1
:100A3000002891D061681F22120291432A69120294
:100A4000114361602168994301432160FFF746FF2C
:100A5000E16809060A0F00E079E1BF49895CC840F6
:100A6000BE4908600020FFF77FFD002872D120E01A
:100A7000FFF758FD801B0228B0D820684007F7D543
:100A800060681F21090288432969090208436060E0
:100A90000FE02068400840002060FFF743FD064655
:100AA00004E0FFF73FFD801B022897D8206840072D
:100AB000F7D42878C0065FD5002F0CD0A86900288D
:100AC00049D02068FF21013108432060FFF72AFD4B
:100AD00006462DE0C0E02068800502D5A869002800
:100AE000A7D06068072149038843296A08436060EA
:100AF0006068297F0002000A090608436060286ACE
:100B0000410B0120C003491C8840E16809060A0F17
:100B10009149895CC840914908600020FFF724FD95
:100B2000002817D128E0FFF7FDFC801B0228A3D87E
:100B300020688005F7D56068072149038843296A42
:100B4000084360606068297F0002000A09060843C4
:100B5000606011E0E1E02168FF2001308143216005
:100B6000FFF7E0FC064604E0FFF7DCFC801B0228F0
:100B700072D820688005F7D42878794E000724D5EC
:100B800068690028306910D0012108433061FFF7FF
:100B9000C9FC009005E0FFF7C5FC0099401A022847
:100BA0005AD830698007F6D50FE040084000306120
:100BB000FFF7B8FC009005E0FFF7B4FC0099401A7D
:100BC000022849D830698007F6D42878400765D5CF
:100BD00000200290A06BC00006D4A06B0121090781
:100BE0000843A063012002905E480168C90511D442
:100BF0000168821511430160FFF794FC009005E045
:100C0000FFF790FC0099401A642825D855480068E1
:100C1000C005F5D5FF20AA680130824203D13169B1
:100C20000143316111E001218902002A07D0052327
:100C30001B029A4203D132690A433261EFE73269FB
:100C400082433261306988433061A86800280FD040
:100C5000FFF768FC009007E05EE0FFF763FC009997
:100C6000411A4148814257D830698005F5D50DE0D9
:100C7000FFF758FC009006E0FFF754FC0099411A7A
:100C80003948814248D830698005F5D40298002857
:100C900004D0A06B012109078843A063686A00287B
:100CA00064D00C2F3ED0012636060228206805D0DD
:100CB000B0432060FFF736FC05462FE0B0432060CC
:100CC000FFF730FC074604E0FFF72CFCC01B0228AE
:100CD00022D820688001F7D4E96AA86AE26808434C
:100CE000296BFD231B049A4311430843E0602068ED
:100CF00030432060FFF716FC054604E0FFF712FCC6
:100D0000401B022808D820688001F7D52EE0FFF7A5
:100D100009FC401B022801D90320FEBD2068800188
:100D2000F5D423E00128F8D0E06801210904AA6A7B
:100D3000014091420BD10F218904EA6A014091429E
:100D400005D1032189050840296B88420ED0012076
:100D5000FEBD0000001002404818000804000020FA
:100D60004010024000700040881300000020EFE7B0
:100D700070B5040007D0002625464035A662687C81
:100D8000002802D005E0012070BD2E74204600F03E
:100D90002FF80220687420680168402291430160A6
:100DA000A168606822690843E168114308436169EA
:100DB00001220843A169520211400843E169084336
:100DC000216A0843A16A084321680860A0690421D8
:100DD000000C0840616A0843216848602068C169C6
:100DE00092009143C161666501206874002070BD66
:100DF00010B586B0044614216846FFF7C6F91049BD
:100E00002068884219D10F48416B82141143416315
:100E1000C16A01221143C162C06A002110400590DD
:100E2000E0200090022001900320039002910491A1
:100E3000052069460007FFF7B3FA06B010BD0000B1
:100E40000030014000100240094910B5401E8842A0
:100E500001D9012010BD074C60610321081F00F07B
:100E600041FA0020A06107202061002010BD000091
:100E7000FFFFFF0000E000E070477047F8B5026830
:100E80000446D0691168936805072D0F5BD0DD0714
:100E9000ED0FFF2621360E402E4367D0C60706D041
:100EA000CE0504D501261662E26F3243E26787075A
:100EB00002220426002F06DADF0704D027683A62F0
:100EC000E76F3743E767470706D5DB0704D023689A
:100ED0001E62E36F1343E367020709D520220A402D
:100EE0002A4305D0236808221A62E36F1343E3679D
:100EF000E26F002A2FD0800606D5880604D5216E21
:100F0000002901D020468847E06F2168896849069A
:100F100001D4000724D5204600F014FB2068816826
:100F2000490619D58168402291438160E06E00280E
:100F300012D020498163E06EFFF76FF900280AD0D4
:100F4000E06E816B06E0850610D58D060ED5216E0C
:100F50001CE020468847F8BD2046FFF78EFFF8BD0D
:100F60002046FFF78AFF0020E067F8BDC50208D5DC
:100F70005B0206D50120000510622046FFF77CFFCA
:100F8000F8BD030605D50B0603D5616E0029E0D137
:100F9000F8BD4006FCD54806FAD513682046402126
:100FA0008B431360202161670021616600F0B8F86F
:100FB000F8BD00003115000810B5040003D0606FC3
:100FC000002802D007E0012010BD0021702001554B
:100FD000204600F027F8242060672068016849084F
:100FE00049000160204600F0BDFA0128ECD0606A9B
:100FF000002802D0204600F005FA20684168092246
:10100000D20291434160206881682A229143816025
:1010100020680168012211430160204600F058FA5F
:1010200010BD0000F0B587B0064614216846FFF7F2
:10103000ACF8344C376800253349022003220423DE
:10104000A74233D18C6B47043C438C63CC6A044386
:10105000CC62C96A0190014005919102009102950C
:101060000493039269462948FFF79AF9294C2848C6
:101070002060A5600520E56060606561A561E561AF
:101080008020256220612046FFF742F9002801D028
:10109000FFF7C2F8F466002211461D20A662FFF792
:1010A00091FA1D20FFF784FA07B0F0BD1A4E012413
:1010B000B7420CD14E6BA7033E434E63CE6A264324
:1010C000CE62C96A21400591032149020FE0134E07
:1010D000B742E9D18E6B01277F043E438E63CE6A0F
:1010E0002643CE62C96AC907C90F05910C21019038
:1010F0000091052002950493039269460007FFF7CB
:101100004FF9D1E7004800400010024000040050B1
:1011100030000240880100200038014000440040B7
:101120007047FEE710B50248FFF7A8FE10BD0000AB
:101130000800002008B50848016B01221143016333
:10114000006B10400022009011460A20FFF73AFA87
:101150000A20FFF72DFA08BD00100240F0B587B055
:1011600014216846FFF711F81F48C16A0125294379
:10117000C162C16A29400591C16A02263143C16238
:10118000C06A1A4F304005900520002239460007FA
:10119000FFF7C2F9002216491648FFF7BDF90320F0
:1011A0000024009005200194694602940007FFF78F
:1011B000F7F805200294694600070097019503940B
:1011C000FFF7EEF80A4800900294694601950394EF
:1011D0000848FFF7E5F8019469460648009602942E
:1011E000FFF7DEF807B0F0BD001002401019000054
:1011F000057000000004005010B50C480A49016059
:10120000E1214902416000218160C1600161816189
:101210000C22016242614162FFF7CEFE002801D03C
:10122000FEF7FAFF10BD0000004800400800002053
:1012300010B50E480C490160FF21053141600021C5
:101240008160C16001614161C1610122016252029C
:101250004162826181620721C162FFF789FD002836
:1012600001D0FEF7D9FF10BD00300140D0010020B1
:1012700010B50C480A490160E12149024160002192
:101280008160C16001618161C1610C2201624261C2
:101290004162FFF791FE002801D0FEF7BDFF10BDAF
:1012A000003801408800002010B50C480A49016050
:1012B000E1214902416000218160C16001618161D9
:1012C000C1610C22016242614162FFF775FE002894
:1012D00001D0FEF7A1FF10BD00440040080100202E
:1012E000704700008307FF22DB0E9A408907090E32
:1012F000994000280BDA0007000F083883080848D7
:101300009B001818C36993430B43C361704783085C
:1013100004489B001B1818689043084318607047E6
:1013200000ED00E000E400E07047704710B5FFF703
:10133000FFF810BD10B59AB034216846FEF725FFBE
:10134000142114A8FEF721FF1C210DA8FEF71DFF94
:10135000164801680322D2029143C2148918016021
:101360000121022003911021009004910990400472
:101370000B90000100240C900A946846FFF7EAFAEB
:101380000F2014900320159016941794012118949F
:1013900014A8FFF7CDF907200D900F941094119425
:1013A0000DA8FFF713F91AB010BD0000007000403F
:1013B00010480168821511430160C1680E4A11404E
:1013C000C16001680D4A1140016081684908490007
:1013D000816001680122920491430160C168FD228D
:1013E00012049143C160002101610549C003886076
:1013F00070470000001002400C40FF88F6FFF6FE28
:1014000000ED00E010B5818CC90707D001684A687B
:1014100001235B049A43836A1A434A60818C8907DB
:1014200007D501684A6801231B049A43C36A1A431B
:101430004A60818C490707D501684A6801239B04EB
:101440009A43036B1A434A60818C090707D50168E8
:101450004A680123DB039A43436B1A434A60818C39
:10146000C90607D50268916801231B039943836B62
:1014700019439160818C890607D501688A68012328
:101480005B039A43C36B1A438A60818C490612D569
:1014900003685A6801210905046C8A4322435A6093
:1014A000026C8A4207D10268516803235B059943A5
:1014B000436C19435160818C090607D501684A685D
:1014C0000123DB04806C9A4302434A6010BD000094
:1014D000F8B500260446C667FFF724F805462068DD
:1014E0000068124F000709D501212B46002249054B
:1014F0002046009700F04AF900280DD120680068C6
:1015000040070BD501212B46002289052046009774
:1015100000F03CF9002801D00320F8BD20206067CE
:10152000A067603426740020F8BD0000FFFFFF01B3
:1015300010B5806A0022014640314A834A82FFF793
:101540009CFC10BD01680A68FF2321339A430A609E
:1015500001688A68520852008A6020218167002150
:1015600001667047F8B504462669A268E769324308
:101570006669102000253E432368324378491E687F
:10158000784F3E4016431E6023685A680326360390
:10159000B243E66832435A602368A2698B4201D0A5
:1015A000266A32439E680B273F02BE4316439E6065
:1015B0006D4E23686D4AB3420CD1D2689207920FE8
:1015C00006D0012A38D0022A34D0032A20D11EE0C6
:1015D00001201DE0664EB3420AD1D2680C2632408B
:1015E00026D0042A28D0082A24D00C2A10D10EE0B4
:1015F0008B420DD1D66803229202164018D00122E8
:101600009202B61A18D0B61A14D0964200D1082009
:10161000564A0126403A574FF6038B4236D10028EE
:101620000CD002280DD0042812D008281FD11CE0AD
:101630000020EDE70220EBE70420E9E7FFF72EF9B1
:1016400008E01068C00601D5384605E04A4803E0C6
:10165000FFF744F9002873D06268510051188142A5
:1016600005D81103814202D303E03046F4E7012597
:1016700066E0010E06025008002330185941FEF7BB
:101680004DFD03210902411A3C4A55E0E169B1428E
:1016900032D1030000F0ABF809070A0D0625060653
:1016A000062B0600E3E7FFF7F9F81CE0FFF706F961
:1016B00019E010686168C00602D54808304A01E0A8
:1016C000304A48088018FEF713FD80B201462E4AC2
:1016D00010399142CBD8511C01400007400F0843FC
:1016E0002CE0FFF7FBF8616840004A08EAE7616810
:1016F000012248081204E5E7030000F078F8090722
:101700000A0D06260606062C0600B0E7FFF7C6F807
:101710001DE0FFF7D3F81AE010686168C00602D533
:101720004808C01902E014484A081018FEF7E0FC07
:1017300080B20146144A1039914298D82168C86095
:101740000020206660662846F8BDFFF7C7F861688C
:101750004A088018EAE7616848088019E6E700004F
:1017600000480040F369FFEF00380140401002409C
:101770000044004000093D000024F400FFFC0F007D
:1017800000127A000048E801EFFF0000FFB581B0C9
:1017900017460E4604460A9D09E0681C07D0FEF76E
:1017A000C1FE0499401AA8420CD8002D0AD0206826
:1017B000C1693046884318D00020B842EDD00020DF
:1017C00005B0F0BD20680168FF22A132914301609D
:1017D0002068816849084900816020206067A0670F
:1017E0000020603420740320EAE70120E5E730B4EC
:1017F0007446641E2578641CAB4200D21D46635DAE
:101800005B00E31830BC184702E008C8121F08C18B
:10181000002AFAD170477047002001E001C1121F71
:10182000002AFBD17047FEF78BFEFFF783FDFFF721
:1018300095FCFFF77FFCFFF7FBFCFFF719FDFFF7B7
:1018400033FDFFF7D9FCFEE70000000000000000B8
:101850000102030406070809030406080C101820F7
:101860003000000000010203040000008C18000892
:101870000000002008000000081800089418000864
:1018800008000020201200001818000800000000C6
:041890000000200034
:04000005080000C12E
:00000001FF
