:020000040800F2
:1000000000180020D5000008051F0008AD1C0008DE
:1000100000000000000000000000000000000000E0
:100020000000000000000000000000003521000872
:100030000000000000000000511F00089925000882
:10004000E7000008E7000008E7000008E7000008F4
:10005000E7000008E7000008E7000008E7000008E4
:1000600000000000E7000008E70000085505000850
:10007000E7000008E700000800000000E7000008B3
:1000800000000000E7000008000000000000000081
:10009000E700000800000000E7000008E700000893
:1000A000E7000008E7000008E7000008E700000894
:1000B000292B0008E70000080000000000000000F5
:1000C0000348854600F030FA00480047253900080B
:1000D000001800200448804704480047FEE7FEE778
:1000E000FEE7FEE7FEE7FEE749260008C10000083C
:1000F00030B50B46014600202022012409E00D46C0
:10010000D5409D4205D31D469540491B2546954047
:1001100040191546521E002DF1DC30BDF0B51FB45C
:100120000646002082B005464024019100901BE065
:10013000019922460F46304600F044F9049A059B87
:10014000801A994110D310461946224600F02AF928
:10015000361A8F410197224601200021009F00F0AE
:1001600021F938184D4100902046641E0028DFDC3C
:10017000019B00982946324607B0F0BDD2B201E09B
:100180000270401C491EFBD270470022F6E710B5F2
:1001900013460A4604461946FFF7F0FF204610BDF5
:1001A00030B505462A460B4610781C78521C5B1C5D
:1001B000002801D0A042F7D0002C03D0002802D0A4
:1001C0006D1CEFE7284630BD70B502464A40D50F9A
:1001D00040004A00ED0740085208002814D0002AC9
:1001E00012D0C40DD30D41020120C0055202490AAC
:1001F000520AE41A091812187D34914201D3641C82
:1002000000E04900002C01DA002070BD002391427B
:1002100001D3891A0343400849000028F7D1002977
:100220000AD0914202D10121C90705E0914201D2D1
:10023000012101E00121C943E005C018401900F087
:10024000D2F870BDF0B50C465C4085B0E40FE40711
:1002500003944C000026640859009446490802465D
:100260000296224321D062460A431ED06200570DF7
:100270004A000E032303550D012402462C49240590
:10028000781B1B0B360B4018234326436146009016
:100290001C46501AB44103D30098401C009002E061
:1002A000921800985B41002803DA0020014605B04F
:1002B000F0BD0020012109050746864611E064468D
:1002C0001D46141BB54106D36546521BB341744607
:1002D00007430C43A646CD07400849082843921817
:1002E0005B4105460D43EAD11046184313D06046E2
:1002F000194650407140084306D06046101AB34179
:1003000006D20122002306E000220123DB0702E0DF
:100310000122D2435310009874460105381C6141F4
:10032000029C039D0019694100F09EF8BFE70000A0
:10033000FD030000C217C10F504010B54018CA0796
:100340009623002100F057F810BD00000EB50549B6
:100350000291002100910A460B46019100F091F8AC
:1003600003B000BD330400004A0009030123090B58
:100370001B051943094B10B5520D9A4201DA0020B2
:1003800010BD064B34339A4203DC9A1A00F01AF877
:1003900010BD03495118884010BD0000FF03000044
:1003A000CDFBFFFF10B5202A04DB0146203A914027
:1003B000002010BD914020239C1A0346E3401943BE
:1003C000904010BD10B5202A04DB0846203AD040EA
:1003D000002110BD0B46D340D0402024A21A9140EA
:1003E0000843194610BD002904DA401C490001D118
:1003F00040084000704770B40024050C05D110245B
:10040000000402D1002921D01124050E01D10002DF
:100410000834050F01D10001241D850F01D1800092
:10042000A41C002801DB4000641C002908D0202502
:100430002E1B0D46F540A14000D001212943084361
:1004400001061B1B000ADB1D02D5002070BC704793
:10045000DB05181880180029F8DA401C4900F5D18E
:1004600070BC40084000704710B5002B08DA00242B
:10047000401C614192185B411A4301D14008400081
:1004800010BDF0B51FB482B005460C0003D008467D
:1004900002F078FB02E002F075FB2030024600908B
:1004A00021462846FFF77EFF049B059A04460F4627
:1004B00018431143084314D0184610431BD000982A
:1004C00040210A1A18460599FFF77CFF05460E469B
:1004D000009A05990498FFF765FF084305D00120AD
:1004E00004E02046394607B0F0BD0020C11705439F
:1004F0000E432C43374300990E986305401A790543
:10050000E40A00220C43FD0A0A3002D5002001460D
:10051000E9E70105101969410C9C0D9D001969411D
:10052000FFF7A2FFDFE70000064C0125064E05E0BD
:10053000E36807CC2B430C3C98471034B442F7D304
:10054000FFF7C2FDF04300081044000810B501F0A9
:1005500001FE10BD10B5024800F04CF910BD0000BE
:10056000DC02002030B5446C1C252C400125A54040
:10057000046C6560046863608368102B036803D0B3
:1005800099600068C26030BD9A600068C16030BD8B
:1005900003480068016810221143016070470000A1
:1005A0005C02002070B5114C01221021204600F0A1
:1005B00056FB7D20C00000F0EDF9002210212046FE
:1005C00000F04DFB7D252D01284600F0E3F90122C6
:1005D0001021204600F043FB284600F0DBF92846B6
:1005E00000F0D8F9284600F0D5F970BD000400509D
:1005F00010B50D4C2068C169C943C90613D4102138
:100600000162204601F0FBF8E06E0068406832218C
:10061000091A064832224180012101700146083141
:10062000204601F07DFA10BD5C0200204C03002042
:100630007047000010B5084900224A6107494B681D
:100640004C1523434B604B68082423434B60C0097F
:10065000C001026010BD0000240300200020024001
:1006600010B5214A00219069C305204804D541698D
:10067000022319434161911593699B0505D543698F
:100680000124234343616302194393695B0505D544
:100690004369082423434361E301194393691B051C
:1006A00005D54369042423434361630219439369D5
:1006B0009B0405D543691024234343616302194316
:1006C00093699B0304D5446920231C434461194367
:1006D0009369DB0305D54369402423434361A002AA
:1006E0000143916110BD000000200240240300205E
:1006F00070B5054600F0BAFA0646184C0AE0681CC8
:1007000008D0002D04D000F0B1FA801BA84201D916
:10071000032070BDA069C007F1D1A069800701D591
:100720000220A061A069C00511D4A06980050ED483
:10073000A06940050BD4A069000508D4A069800415
:1007400005D4A069800302D4A069C00303D5FFF7D4
:1007500087FF012070BD002070BD00000020024016
:1007600030B5014620314A790023022A04D0042200
:10077000C2630B71012030BD026814680E25AC43C2
:10078000146002681468640864001460446C1C22DD
:10079000144001221546006CA54045604A71184678
:1007A0000B7130BD70B50024014620314A79022A10
:1007B00003D00421C163012418E0026813680E25E8
:1007C000AB431360026813685B085B001360436C03
:1007D0001C221340012215469D40036C5D604A7146
:1007E00000220A71816B002900D08847204670BD25
:1007F000C06B7047F0B4016C0D6801680C68466C02
:100800001C2304221E401746B7402F420ED0670714
:100810000CD50C68A40602D40C6894430C60416C9F
:1008200019408A40016C4A60016B1AE00227B74008
:1008300002462F402032002F17D0A70715D50C688D
:10084000A40605D40C680A25AC430C600121517143
:10085000446C02211C40036CA140596000211171BD
:10086000C16A002918D0F0BC08470827B7402F42BA
:1008700012D0240710D50C680E25AC430C60446CD4
:1008800001211C400B46A340046C6360C16351719D
:1008900000211171416BE4E7F0BC704770B50400B2
:1008A0003CD01F48256814212818FFF721FC800040
:1008B00060641C48206402212046203002464171B9
:1008C00029681948E3680140A068666918432369EC
:1008D00033431843A3691843E3691843236A184351
:1008E000084328600121A0688903884210D00D4880
:1008F0008030836A656C1C210D400F26AE40B343E7
:100900008362656C63680D40816AAB400B43836210
:100910000020E06301215171107170BD012070BD94
:10092000F8FFFDBF000002400F80FFFFF8B504464E
:100930008C46203001790025012909D00126067155
:1009400041790027012905D0077102252846F8BD05
:100950000220F8BD02214171E7632068016849085F
:100960004900016061462046FFF7FCFD206B00282E
:100970002068016801D00E2205E004229143016045
:10098000206801680A221143016020680168314330
:100990000160DBE770B5044600F068F90546601CAD
:1009A00000D0641C00F062F9401BA042FAD370BD75
:1009B000F8B51A4E0546307C0F46012807D00120B5
:1009C00030741748FFF794FE010002D021E00220A6
:1009D000F8BD0020C04338606C6814E02046FFF783
:1009E00029FE0F48FFF784FE01460E48426808239F
:1009F0009A434260426843159A434260002901D0FD
:100A00003C6006E08034A8686A68C0018018A04293
:100A1000E4D8002030740846F8BD0000240300200C
:100A200050C30000002002400548416802221143E3
:100A3000416041680122114341600020704700007D
:100A400000200240F8B50C4C1646207C0F460128C9
:100A500008D0012020740948FFF74AFE002500282D
:100A600002D006E00220F8BD65613E600348FFF752
:100A70003FFE2574F8BD00002403002050C3000091
:100A800011484168C9070BD0EFF3108172B60F4AC5
:100A9000C2600F4AC26081F310884168C9070ED155
:100AA000416889070DD5EFF3108172B6094A0261DA
:100AB000094A026181F310884068800701D501204E
:100AC000704700207047000000200240EFCDAB8946
:100AD00005040302BFAE9D8C16151413F8B5002350
:100AE0000124A2E027469F403A4070D04D68022D75
:100AF00001D0122D14D1DD08AD002D1800952D6AFE
:100B00005E07AC46F50E0F26AE46AE406546B543D1
:100B1000AC460E697546AE4065462E43009D2E627A
:100B20004D68012D05D0022D03D0112D01D0122DBD
:100B300016D185680326AC465D00AE46AE406546DC
:100B4000B543AC46CE687546AE4065462E438660DA
:100B500046680D79BE43ED06ED0F9D403543456077
:100B600006685F000325BD40AE46AE430D79B4462E
:100B7000AE07B60FBE4065462E430660C668754692
:100B8000AE438D68BD403543C5604D68ED004BD523
:100B9000294D6E6B26436E639E08284DB60075196D
:100BA000AC46AD689E07360F0F27B740BD430527FB
:100BB0003F07B84201D1002715E0214FB84201D1CB
:100BC000012710E01F4FB84202D102270BE02BE0B3
:100BD0001D4FB84201D1032705E01C4FB84201D197
:100BE000052700E00627B7402F436546AF60184D44
:100BF0002E684F689643FF0300D516432E606E683B
:100C00004F689643BF0300D516436E60AE684F68C9
:100C10009643FF0200D51643AE60EE684F689643D8
:100C2000BF0200D51643EE605B1C0A681546DD4026
:100C300000D057E7F8BD000000100240000001405E
:100C40000004005000080050000C0050001C005030
:100C5000000401400069084000D001207047002ACC
:100C600001D08161704781627047000001480068CF
:100C7000704700006400002002480168491C0160C0
:100C8000704700006400002010B508480024016887
:100C9000402211430160204600F00AF8002801D0EC
:100CA000012401E000F01CF8204610BD00200240A5
:100CB00070B5054609487D210024C9000068FFF78A
:100CC00017FA00F083FD002801D0012404E000227F
:100CD0002946501E00F01AF8204670BD680000201A
:100CE0000448416B012211434163816B02041143AB
:100CF0008163704700100240C106C90E0120884080
:100D0000014908607047000000E100E010B501F003
:100D1000FDF810BDBFF34F8F04490348C860BFF30F
:100D20004F8F00BFFDE700000400FA0500ED00E072
:100D3000F8B504460078544D800672D5524E00270F
:100D4000403EB06BC00004D4B06BA9050843B0634B
:100D500001274E480168C90511D401688215114365
:100D60000160FFF783FF009005E0FFF77FFF009928
:100D7000401A642837D845480068C005F5D5326860
:100D80000321090560680A400140914208D08103AF
:100D9000890F032904D13168890301D50120F8BDE9
:100DA0002A69032109040A4022D0084090421FD03A
:100DB000207880061CD528692A6988430121C90446
:100DC0000A432A612A698A432A612861C0050FD52E
:100DD000FFF74CFF009008E0FFF748FF0099411A29
:100DE0002B48814201D90320F8BD28698005F3D53D
:100DF00061688803800F032805D1326800058243AB
:100E000001400A43326028690322616812041140DC
:100E100008432861002F04D0B16B012000078143F3
:100E2000B1632078C00705D0E868A1688008800019
:100E30000843E8602078800705D5E8680C218843DE
:100E4000E1680843E8602078400706D5E868032198
:100E50008902884321690843E8602078000706D5A5
:100E6000E86803210903884361690843E860207842
:100E7000000606D5E868032189048843A169084370
:100E8000E8600020F8BD0000401002400070004003
:100E90008813000070470000F8B50E4605007DD0AD
:100EA00053480068C007C00FB0420AD250480168DA
:100EB00049084900314301600068C007C00FB042D3
:100EC00071D128784B4C800705D5E068F021884324
:100ED000A9680843E0602878C00752D068680228F3
:100EE00017D0032818D02168012818D089050029B7
:100EF00059DAE168890889000143E160FFF7B6FE2D
:100F000069680746022912D003291CD0012926D07E
:100F100033E021688903EAE721688901E7E74907A7
:100F2000E5E7FFF7A3FEC11B3348814223D8E06801
:100F30000007800F0228F4D123E0FFF797FEC11BC2
:100F40002D48814217D8E0680007800F0328F4D1AC
:100F500017E0FFF78BFEC11B274881420BD8E068E2
:100F60000007800F0128F4D10BE0FFF77FFEC11BC3
:100F70002148814201D90320F8BDE0680007800FB5
:100F8000F3D11B480168C907C90FB1420DD90168E7
:100F90004908490031430160006800E003E0C007F0
:100FA000C00FB04201D00120F8BD2878400706D517
:100FB000E068072109028843E9680843E06028786F
:100FC000000707D5E0680721C90288432969C900DD
:100FD0000843E06000F040F8E168084A0906090F9C
:100FE000515CC840064908600020FFF761FEF8BD6B
:100FF000002002400010024088130000CC4300088B
:1010000068000020034801680122D20411430160F6
:101010007047000000100240044805490068C96894
:10102000044A4905490F515CC840704768000020D8
:1010300000100240E5430008044805490068C968FB
:10104000044A8904490F515CC84070476800002079
:1010500000100240E543000810B5184AD1680C2082
:10106000084004280BD0082810D00C2810D0506855
:101070000004410F0120C003491C884010BD1068C6
:10108000C00601D50E4810BD0E4810BD0E4810BD5B
:1010900088020E4B000F185C0902D368890F491CA7
:1010A000DB0301D5084A05E01268D20601D5044ADF
:1010B00000E0044A5043FFF71BF810BD0010024047
:1010C00000093D000024F40000127A00DC4300080F
:1010D00010B5044C6069C00503D5FFF7DBFEA01511
:1010E000A06110BD00100240FEB505007ED0FE4C90
:1010F000E7680C20E66807400120000406402878D5
:10110000C00747D0082F05D00C2F0AD101200004BA
:10111000864206D1206880033CD568680028E5D067
:1011200038E0012069680004814203D1216801434D
:10113000216011E0052301221B04920499422168D9
:1011400002D111432160F1E7814321602168014010
:101150000091206890432060686800280DD0FFF758
:1011600085FD009005E0FFF781FD0099401A642895
:101170007AD820688003F6D50CE0FFF777FD009061
:1011800005E0FFF773FD0099401A6428F0D8206845
:101190008003F6D42878800755D50923E868042F02
:1011A0000DD00C2F01D1002E09D000283BD0216892
:1011B000994301432160FFF759FD064627E0216866
:1011C000490701D5002891D061681F22120291437E
:1011D0002A69120211436160216899430143216029
:1011E000FFF73AFFE16809060A0F00E079E1BF491D
:1011F000895CC840BE4908600020FFF759FD0028FF
:1012000072D120E0FFF732FD801B0228B0D82068A1
:101210004007F7D560681F21090288432969090240
:10122000084360600FE02068400840002060FFF73E
:101230001DFD064604E0FFF719FD801B022897D824
:1012400020684007F7D42878C0065FD5002F0CD05F
:10125000A869002849D02068FF2101310843206097
:10126000FFF704FD06462DE0C0E02068800502D5AA
:10127000A8690028A7D06068072149038843296A24
:10128000084360606068297F0002000A090608437D
:101290006060286A410B0120C003491C8840E16856
:1012A00009060A0F9149895CC840914908600020ED
:1012B000FFF7FEFC002817D128E0FFF7D7FC801BC2
:1012C0000228A3D820688005F7D560680721490364
:1012D0008843296A084360606068297F0002000A29
:1012E00009060843606011E0E1E02168FF20013059
:1012F00081432160FFF7BAFC064604E0FFF7B6FC25
:10130000801B022872D820688005F7D42878794E8F
:10131000000724D568690028306910D001210843EE
:101320003061FFF7A3FC009005E0FFF79FFC0099F8
:10133000401A02285AD830698007F6D50FE04008D5
:1013400040003061FFF792FC009005E0FFF78EFC53
:101350000099401A022849D830698007F6D42878C5
:10136000400765D500200290A06BC00006D4A06B9A
:10137000012109070843A063012002905E4801682B
:10138000C90511D40168821511430160FFF76EFC95
:10139000009005E0FFF76AFC0099401A642825D800
:1013A00055480068C005F5D5FF20AA680130824283
:1013B00003D131690143316111E001218902002A21
:1013C00007D005231B029A4203D132690A433261D6
:1013D000EFE7326982433261306988433061A8683F
:1013E00000280FD0FFF742FC009007E05EE0FFF717
:1013F0003DFC0099411A4148814257D83069800527
:10140000F5D50DE0FFF732FC009006E0FFF72EFC6B
:101410000099411A3948814248D830698005F5D48D
:101420000298002804D0A06B012109078843A0631B
:10143000686A002864D00C2F3ED0012636060228A8
:10144000206805D0B0432060FFF710FC05462FE070
:10145000B0432060FFF70AFC074604E0FFF706FCF4
:10146000C01B022822D820688001F7D4E96AA86A44
:10147000E2680843296BFD231B049A431143084388
:10148000E060206830432060FFF7F0FB054604E091
:10149000FFF7ECFB401B022808D820688001F7D535
:1014A0002EE0FFF7E3FB401B022801D90320FEBD1D
:1014B00020688001F5D423E00128F8D0E0680121FC
:1014C0000904AA6A014091420BD10F218904EA6AFA
:1014D0000140914205D1032189050840296B8842CA
:1014E0000ED00120FEBD000000100240CC430008D9
:1014F0006800002040100240007000408813000087
:101500000020EFE770B5040007D0002625464035DF
:10151000A662687C002802D005E0012070BD2E7410
:10152000204600F02FF802206874206801684022ED
:1015300091430160A168606822690843E168114332
:101540000843616901220843A1695202114008431E
:10155000E1690843216A0843A16A084321680860D9
:10156000A0690421000C0840616A084321684860B2
:101570002068C16992009143C16166650120687469
:10158000002070BD10B586B0044614216846FEF7F1
:10159000FCFD10492068884219D10F48416B821424
:1015A00011434163C16A01221143C162C06A002133
:1015B00010400590E020009002200190032003904D
:1015C00002910491052069460007FFF787FA06B0EB
:1015D00010BD00000030014000100240FFB504467D
:1015E00083B0012001900020264640360090307CD8
:1015F0000C9F1D4601280FD001203074FFF736FBE9
:101600000290707C616801280DD0CA1FFD3A08D194
:10161000A168002905D102E0022007B0F0BD04282E
:1016200001D00220C3E00498002828D005980028A3
:1016300025D0002D23D0707C042801D005207074A3
:10164000002060650599A163E587A587049921635A
:10165000E586A5862064606420680168490603D495
:1016600001684022114301600121E068C9028842FB
:10167000606848D1002804D0012D02D03CE0012050
:1016800095E0206B21680088C860206B801C206377
:10169000E08E401EE0862FE020688168890710D523
:1016A000E18E00290DD0019901290AD1216B098809
:1016B000C160206B801C2063E08E401EE08600200D
:1016C000019020688168C9070DD0E18F00290AD0F8
:1016D000C068A16B0880A06B801CA063E08F401ED7
:1016E000E08701200190FFF7C1FA01460298081A2D
:1016F000B84201D3781C59D1E08E0028CCD1E08FBC
:101700000028C9D146E0002801D0012D3CD1206B32
:10171000216800780873206B401C2063E08E401E17
:10172000E08631E020688168890710D5E18E0029C4
:101730000DD0019901290AD1216B09780173206B21
:10174000401C2063E08E401EE0860020019020684F
:101750008168C9070DD0E18F00290AD0C068A16B4C
:101760000870A06B401CA063E08F401EE087012042
:101770000190FFF77BFA0299401AB84202D3781C15
:1017800002D013E0002F11D0E08E0028CAD1E08FE4
:101790000028C7D139462046029A00F0DAFB00281B
:1017A00007D0012000902020606509E00320009010
:1017B00006E0A068002803D12068C1688068019015
:1017C0000120707400203074009826E7094910B594
:1017D000401E884201D9012010BD074C60610321E1
:1017E000081F00F093FB0020A0610720206100206B
:1017F00010BD0000FFFFFF0000E000E0704770B583
:10180000416F0446856F0068826810261206002A20
:1018100014DA212912D18168802291438160A06E5F
:10182000002808D0FEF79CFF002804D0A06EFEF729
:10183000DFFF20281DD0204601F028F820688168AD
:10184000490614D5222D12D181684022914381602E
:10185000E06E002808D0FEF783FF002804D0E06E79
:10186000FEF7C6FF202804D0204600F0FFFF00202E
:1018700070BDE667032070BD70470000F8B50268D0
:101880000446D0691168936805072D0F5BD0DD070A
:10189000ED0FFF2621360E402E4367D0C60706D037
:1018A000CE0504D501261662E26F3243E267870750
:1018B00002220426002F06DADF0704D027683A62E6
:1018C000E76F3743E767470706D5DB0704D0236890
:1018D0001E62E36F1343E367020709D520220A4023
:1018E0002A4305D0236808221A62E36F1343E36793
:1018F000E26F002A2FD0800606D5880604D5216E17
:10190000002901D020468847E06F21688968490690
:1019100001D4000724D5204600F0A8FF2068816884
:10192000490619D58168402291438160E06E002804
:1019300012D020498163E06EFEF734FF00280AD000
:10194000E06E816B06E0850610D58D060ED5216E02
:101950001CE020468847F8BD2046FFF78DFFF8BD04
:101960002046FFF789FF0020E067F8BDC50208D5D3
:101970005B0206D50120000510622046FFF73EFFFE
:10198000F8BD030605D50B0603D5616E0029E0D12D
:10199000F8BD4006FCD54806FAD51368204640211C
:1019A0008B431360202161670021616600F07DF99F
:1019B000F8BD0000C927000810B5040003D0606F0F
:1019C000002802D007E0012010BD00217020015541
:1019D000204600F027F82420606720680168490845
:1019E00049000160204600F059FF0128ECD0606AF0
:1019F000002802D0204600F051FE206841680922EC
:101A0000D20291434160206881682A22914381601B
:101A100020680168012211430160204600F0A4FE05
:101A200010BD0000F0B587B0074614216846FEF7E8
:101A3000ACFB364C3B68364A012603210425A34201
:101A400023D1536B2C0323435363D36A3343D362B1
:101A5000D26A022732400592621100920C46019729
:101A6000002202AB34C3052069460007FFF736F8B1
:101A70002802009005206946019702960495039478
:101A80000007FFF72BF807B0F0BD224CA342FAD1B4
:101A9000936B0124640423439363D36A3343D36277
:101AA000D26A0095D207D20F2C460592032102225A
:101AB00000250391052002950494019269460007D0
:101AC000FFF70CF8082000900220019003200390FB
:101AD00005200296694604940007FEF7FFFF0E48B2
:101AE0000E4E31C63560B5608020F56070602020F4
:101AF0007561306109480C3EFEF7D0FE002801D028
:101B0000FEF796FDFE66B762BDE7000000380140B3
:101B1000001002400044004058000240DC02002057
:101B2000F8B50446806F20284DD100290BD0002A3B
:101B300009D00123A0681B03984206D12069002820
:101B400003D1C80701D00120F8BD25466035287CA7
:101B5000012838D0012028745820616502530026DE
:101B6000E6672220A067E06E002819D01749C162FD
:101B7000E16E17480863E16E16484863E06E13464D
:101B80008663676D21683A462431E06EFEF7CEFE2B
:101B9000002805D01020E0672E7420206067D2E76F
:101BA0002E7420680168FF22013211430160206811
:101BB00081680122114381602068816840221143BD
:101BC00081600020F8BD0220F8BD00002528000833
:101BD00063280008DD27000870477047FFB50446FA
:101BE000406F83B017460D4620285CD1002D0AD0E7
:101BF000002F08D0A168C001814207D120690028C8
:101C000004D1E80702D0012007B0F0BD20466030C3
:101C10000290007C012846D0029801210174002026
:101C2000E06721206067FFF721F8264640360190E3
:101C3000378277820120A1680003814202D12069A6
:101C4000002802D02F46002511E000270FE00022D7
:101C50008021204600F036FF002815D1002F15D036
:101C60002168387888627F1C708A401E7082708A72
:101C7000019B002806980090E9D1002240212046CF
:101C800000F020FF002808D00320BDE72888216845
:101C9000C005C00D8862AD1CE6E720206067029990
:101CA00000200874B0E70220AEE77047FEE70000AE
:101CB00070B5294D2949286840182949884237D2EA
:101CC0002879000900012871902831D80107254C96
:101CD000090F0DD10011030000F06BFF0A3A3836EE
:101CE0003432302E2C08060A1F4800E01F482060BE
:101CF000687900090001014660396871612917D2CD
:101D000001090220491E8840FEF714FB2168FEF7F6
:101D10005BFA6060A8790E210840A871801E072830
:101D200006D2072028560F2802DCE87A7F2811D92E
:101D3000002070BD0E48DAE70E48D8E70E48D6E717
:101D40000E48D4E70E48D2E70E48D0E70E48CEE75B
:101D50000E48CCE7012070BD7400002080B85EE61C
:101D600081CE341D6C0000200000FA4300007A434D
:101D70000000FA4200007A42D7A326420000FA414E
:101D8000D7A3A64185EB79415C8F264185EBF940CD
:101D900008B50448016B012211430163006B104038
:101DA000009008BD00100240F0B587B014216846CD
:101DB000FEF7EBF92348C26A80210A43C262C26A75
:101DC0000A400592C16A01252943C162C16A2940BE
:101DD0000591C16A02263143C162C06A1A4F304080
:101DE000059005202A4639460007FEF738FF0122F4
:101DF00016491748FEF733FF032000240090052002
:101E00000194694602940007FEF768FE05200294DB
:101E100069460007009701950394FEF75FFE0B48A3
:101E2000009002946946019503940948FEF756FE16
:101E300001946946064800960294FEF74FFE07B0EB
:101E4000F0BD0000001002401018000019700000E2
:101E50000004005010B50E480C490160FF21053107
:101E6000416000218160C16001614161C161012265
:101E7000016252024162826181620721C162FFF701
:101E800041FB002801D0FEF7D3FB10BD003001401C
:101E90008401002010B50C480A490160E121490283
:101EA000416000218160C16001618161C1610C22DA
:101EB000016242614162FFF77FFD002801D0FEF719
:101EC000B7FB10BD00380140DC01002010B50C4804
:101ED0000A490160E1214902416000218160C1603D
:101EE00001618161C1610C22016242614162FFF7BF
:101EF00063FD002801D0FEF79BFB10BD00440040AD
:101F00005C02002010B5FFF7E3F810BD8307FF2245
:101F1000DB0E9A408907090E994000280BDA00076A
:101F2000000F0838830808489B001818C3699343BA
:101F30000B43C3617047830804489B001B18186853
:101F4000904308431860704700ED00E000E400E0B3
:101F5000704738B504464068FF2305332025984272
:101F600004D100920B460022802107E05120005D41
:101F700005280DD100920B4600220121204600F0D9
:101F800009F8002804D0606D28436065032038BD3F
:101F9000002038BDF8B51D4617460E46044609E038
:101FA000681C07D0FEF762FE0699401AA8420BD2C1
:101FB000002D09D020688168304688432ED000204B
:101FC000B842EDD10020F8BD20684168E02291437D
:101FD00041606068C11FFD390CD10121A068C903AF
:101FE000884202D04911884204D120680168402209
:101FF000914301600120A16A4003814207D1216819
:102000000A6882430A6021680A6802430A60012064
:1020100040346074002020740320F8BD0120CFE715
:1020200030B5002304E010C89D005B1C4C519BB2EE
:102030009342F8D330BD0000F7B582B00020019084
:102040001F200299C0060C18012000041546844286
:1020500057D2FEF715FDA005060EFF20A70A013096
:10206000841BA54200D82C460120B902C0060818DE
:10207000FF22013224490090FFF7D2FF002007E041
:1020800031188A0020498958491C03D1401C80B26C
:10209000A042F5D3A0422ED21C4800210160009935
:1020A00041600121816001A9FEF782FC002008E067
:1020B00003998200895882199300134A401CD15019
:1020C00080B2A042F4D3FF2201320F49009800F001
:1020D0001FF8A54213D00398A10008180390029896
:1020E000002600190290281BFF2485B201347F1CB2
:1020F000A542B9D8B7E7224603990298E7E7FEF769
:1021000093FC05B0F0BD0000EC030020EC070020BC
:10211000F8B516460F460546002408E0A0003A58D8
:1021200029460220FEF78EFC641CA4B22D1DB44289
:10213000F4D3F8BD704710B5002804D0002000F09B
:1021400017F9012003E0012000F012F9002000F04F
:10215000CFF910BD10B502210148FEF77BFD10BD7F
:1021600000040050FEB5234823490068234A411863
:10217000914201D30120FEBDFEF7E8F80022204B7A
:10218000FEF760F8FEF7F0F8044600206946087094
:102190000871087200F07CF9260CF1B2062000F0FC
:1021A000DBF9250AE9B2072000F0D6F9E1B20820F0
:1021B00000F0D2F96946062000F0DBF801A90720FB
:1021C00000F0D7F802A9082000F0D3F86946097892
:1021D000F0B2884209D169460979E8B2884204D14F
:1021E0006946097AE0B2884201D00220FEBD002093
:1021F000FEBD00007400002080B85EE681CE341D74
:1022000080844E407CB5FFF753FD00281ED000F0BF
:10221000E5F80021012000F09FF98021012000F065
:102220009BF98121012000F097F90025684605708F
:102230009121242000F090F96946242000F099F8BB
:1022400068460078912803D002207CBD01207CBD27
:102250004021412000F080F923210C2000F07CF97E
:10226000FFF780FF00F056F806210A2000F074F90D
:102270003B210B2000F070F9214C2220E17A00F084
:102280006BF92179A0790143A07A012801D00120BE
:1022900000E0002001431D2000F05EF9607A6179C2
:1022A000012808D0002001431E2000F055F9607974
:1022B000602802D013E00420F5E76846057101A903
:1022C000312000F056F868460079C108C900312075
:1022D000491D00F041F90C21372000F03DF9084874
:1022E000832108384068C905884201DD082100E0E3
:1022F000002104200143262000F02EF900207CBD9F
:1023000074000020024610B5052010210007FEF7DA
:10231000A6FC10BD38B5154C072020560F2801DD4E
:10232000012038BD00F0B4F8E079F0252843C1B2AF
:10233000092000F011F90021684601706946092062
:1023400000F017F80721615668460078294381425A
:1023500001D0022038BD207A012805D084214D20EB
:1023600000F0FAF8002038BD8721F8E7740000205B
:10237000704710B5012200F001F810BD70B5044699
:1023800015460E460020FFF7BDFF6006400E00F028
:1023900015F8002405E0002000F010F83055641C0A
:1023A000E4B2AC42F7D30120FFF7ACFF70BD0A46A0
:1023B00010B501460020FFF7E1FF10BD01B582B066
:1023C0007D20C0000090012301AA02A90248FFF766
:1023D00005F9684600790EBD8401002010B5094C4E
:1023E000002201212046FEF73AFCC820FEF7D2FA6F
:1023F000012211462046FEF732FCC820FEF7CAFA39
:1024000010BD0000000400507CB5054601A919204C
:10241000FFF7AFFF684601791B4C080607D5C84394
:10242000401C0006800E69460871404202E08808A0
:102430006946087160811A20FFF79BFF0A20205E21
:10244000002803DA69460978081A05E0684600782A
:102450000F210001FDF74CFEA43820810B4CA07A1F
:10246000012808D121460B311320FFF782FF0021FC
:102470000D2000F071F8E17A2846FFF798FFFF2160
:10248000122000F069F87CBD3C030020740000209D
:1024900010B58121012000F05FF810BD10B5812139
:1024A000012000F059F80021202000F055F80A2101
:1024B000212000F051F80D48C17A222000F04CF89C
:1024C00000210D2000F048F8FF21122000F044F810
:1024D000BF21112000F040F80021402000F03CF81E
:1024E0008521012000F038F810BD000074000020A4
:1024F0007047000070B504468121012000F02CF8DF
:102500000021202000F028F80A21212000F024F8E2
:10251000104D2220E97A00F01FF80120FFF70BFE92
:1025200080210D2000F018F8EA7A2146002000F002
:1025300019F8FF21122000F00FF8F721112000F008
:102540000BF84021084600F007F88321012000F035
:1025500003F870BD7400002013B5012201A900F03A
:1025600001F81CBD70B5044615460E460020FFF765
:10257000C9FE204680210843FFF720FF002404E025
:10258000305DFFF71BFF641CE4B2AC42F8D30120BE
:10259000FFF7B8FE70BD000010B5094A00231168AE
:1025A0000848002907D10168074C491C0160A14275
:1025B00002D9012111600360FEF75EFB10BD00002F
:1025C0000C000020440000203075000030B599B0A8
:1025D00034216846FDF7D9FD14210DA8FDF7D5FD7E
:1025E0001C2112A8FDF7D1FD164801680322D20272
:1025F0009143C21489180160012001040090022057
:1026000009900320019180040B9088010C900A919D
:102610006846FEF769FD00240F2003250D900F94F6
:10262000109401210E9511940DA8FEF735FC149419
:1026300012A812951594FEF77BFBFEF7E3FC19B088
:1026400030BD000000700040104801688215114341
:102650000160C1680E4A1140C16001680D4A114015
:102660000160816849084900816001680122920483
:1026700091430160C168FD2212049143C1600021B1
:1026800001610549C00388607047000000100240E6
:102690000C40FF88F6FFF6FE00ED00E010B5818CDF
:1026A000C90707D001684A6801235B049A43836A1B
:1026B0001A434A60818C890707D501684A6801235B
:1026C0001B049A43C36A1A434A60818C490707D5A1
:1026D00001684A6801239B049A43036B1A434A60CA
:1026E000818C090707D501684A680123DB039A43F7
:1026F000436B1A434A60818CC90607D5026891680A
:1027000001231B039943836B19439160818C8906D4
:1027100007D501688A6801235B039A43C36B1A4398
:102720008A60818C490612D503685A68012109051F
:10273000046C8A4322435A60026C8A4207D10268C1
:10274000516803235B059943436C19435160818CA5
:10275000090607D501684A680123DB04806C9A43A7
:1027600002434A6010BD0000F8B500260446C66763
:10277000FEF77CFA054620680068124F000709D56D
:1027800001212B46002249052046009700F09AF9C6
:1027900000280DD12068006840070BD501212B4689
:1027A000002289052046009700F08CF9002801D00E
:1027B0000320F8BD20206067A067603426740020E5
:1027C000F8BD0000FFFFFF0110B5806A002201463E
:1027D00040314A834A82FFF74FF810BD70B5846AD2
:1027E000606FA56F2168896800260906002906DA4E
:1027F000212804D152200653204600F047F82068D3
:102800008068400606D5222D04D15A200653204662
:1028100000F02CF8E06F10210843E0672046FFF736
:102820002BF870BD10B501460968806A09688906F1
:1028300014D400225A210A5201680A68FF23013386
:102840009A430A6001688A68520852008A600168E7
:102850008A6840239A438A6020218167FFF7BCF988
:1028600010BD10B5806AFFF7B8F910BD01680A689D
:10287000FF2321339A430A6001688A685208520094
:102880008A602021816700210166704701680A681B
:10289000C0239A430A60202141677047F8B5044677
:1028A0002669A268E76932436669102000253E4325
:1028B0002368324378491E68784F3E4016431E60B5
:1028C00023685A6803263603B243E66832435A60E7
:1028D0002368A2698B4201D0266A32439E680B2787
:1028E0003F02BE4316439E606D4E23686D4AB3425D
:1028F0000CD1D2689207920F06D0012A38D0022A52
:1029000034D0032A20D11EE001201DE0664EB342E0
:102910000AD1D2680C26324026D0042A28D0082AB0
:1029200024D00C2A10D10EE08B420DD1D6680322A0
:102930009202164018D001229202B61A18D0B61A86
:1029400014D0964200D10820564A0126403A574FEB
:10295000F6038B4236D100280CD002280DD0042873
:1029600012D008281FD11CE00020EDE70220EBE781
:102970000420E9E7FEF750FB08E01068C00601D527
:10298000384605E04A4803E0FEF766FB002873D0AE
:10299000626851005118814205D81103814202D367
:1029A00003E03046F4E7012566E0010E0602500818
:1029B000002330185941FDF7B1FB03210902411AE8
:1029C0003C4A55E0E169B14232D1030000F0F1F830
:1029D00009070A0D06250606062B0600E3E7FEF7A3
:1029E0001BFB1CE0FEF728FB19E010686168C006BD
:1029F00002D54808304A01E0304A48088018FDF7FF
:102A000077FB80B201462E4A10399142CBD8511C37
:102A100001400007400F08432CE0FEF71DFB6168F2
:102A200040004A08EAE76168012248081204E5E725
:102A3000030000F0BEF809070A0D06260606062C5C
:102A40000600B0E7FEF7E8FA1DE0FEF7F5FA1AE037
:102A500010686168C00602D54808C01902E0144831
:102A60004A081018FDF744FB80B20146144A103999
:102A7000914298D82168C860002020666066284688
:102A8000F8BDFEF7E9FA61684A088018EAE761686C
:102A900048088019E6E7000000480040F369FFEFAE
:102AA00000380140401002400044004000093D0051
:102AB0000024F400FFFC0F0000127A000048E80137
:102AC000EFFF0000FFB581B017460E4604460A9D91
:102AD00009E0681C07D0FEF7C9F80499401AA8421B
:102AE0000CD8002D0AD02068C1693046884318D020
:102AF0000020B842EDD0002005B0F0BD206801688C
:102B0000FF22A13291430160206881684908490091
:102B1000816020206067A06700206034207403205B
:102B2000EAE70120E5E7000010B5FDF761FD024886
:102B3000FEF7A4FE10BD00005C0200200FB410B52B
:102B400003A9044B044A029800F050F810BC08BCDA
:102B500004B01847E9360008FC0000200FB410B597
:102B600004A9074B02AA039800F040F8044602A902
:102B7000002000F075FA204610BC08BC04B01847CD
:102B8000613000082021020C01D010211046020AF9
:102B900001D010460839020901D01046091F8208E9
:102BA00001D01046891E420801D0881E7047081ABD
:102BB000704730B47446641E2578641CAB4200D262
:102BC0001D46635D5B00E31830BC184702E008C88F
:102BD000121F08C1002AFAD170477047002001E097
:102BE00001C1121F002AFBD170470000FFB591B050
:102BF0000F460546002606E025280AD0149A1399A8
:102C000090476D1C761C28780028F5D1304615B009
:102C1000F0BD002400940121F34A029400E0044333
:102C20006D1C2B780846203B98401042F7D128783D
:102C30002A280ED0022128780246303A092A15D8CF
:102C4000009A0A235A43303A80180C436D1C0090B6
:102C5000F1E701CF0090002805DA0120400304438A
:102C6000009840420090022004436D1C28782E28D2
:102C700015D10420044368786D1C2A280AD101CF9D
:102C80006D1C02900BE002990A2251433039401822
:102C90006D1C02902878014630390929F3D928782B
:102CA0006C2810D006DC4C281AD068280ED06A2870
:102CB00017D104E0742813D07A2812D110E0012033
:102CC000400504430CE00121090501E00321090549
:102CD0000C436978814203D10120000524186D1C42
:102CE0006D1C287803906E281ED00CDC632831D030
:102CF00004DC00288AD0582811D1B2E064287BD0A7
:102D000069280CD178E073282DD004DC6F2870D0AE
:102D1000702804D1A7E075286CD078286BD0149A5D
:102D200013999047761C62E06002400F022807D09A
:102D300003280AD0042838680AD006603F1D56E0F0
:102D40003868F11706604160F8E738680680F5E7F3
:102D50000670F3E73878694608740020487404A8C0
:102D60000390012003E0386803900020C0433F1D1A
:102D700061070FD5002101E00199491C029A0191D8
:102D8000914213DA8142F7DB019A0399895C0029A9
:102D9000F2D10BE0002101E00199491C019181422F
:102DA000FADB019A0399895C0029F5D10199009811
:102DB000139A401A00902146149B00F03BF90199A8
:102DC0008019461807E0039803990078491C03917D
:102DD000149A139990470198401E0190401CF2D11B
:102DE0002146149B139A009800F014F986196D1C63
:102DF00009E741E033E034E00A2000210490059126
:102E00006002410F022905D001CFC2179446032961
:102E100005D007E0FF1DFF08FF0003CF06E000B26A
:102E2000C2179446042902D140B2C1178C46002231
:102E30006146944506DA0A460021404291418C469B
:102E40002D2102E0210504D52B216A4611760121AE
:102E500003E0E10701D02021F7E7019154E00A20C7
:102E60000BE0102009E0102004900021042004430E
:102E700008200591029003E00820002105910490AC
:102E80006002410F022905D001CF00229446032998
:102E900006D006E0FF1DFF08FF0003CF8C4603E0CD
:102EA00080B2042900D1C0B20021019121072BD5A5
:102EB0000399702906D0049A1021059B4A401A43B1
:102EC00005D00EE040216A461176012108E06146F6
:102ED000014306D030216A461176039951760221CA
:102EE0000191049A0821059B4A401A430CD161467E
:102EF000014301D1610707D530216A4611760121CE
:102F000001910299491E02910399582904D037A1D1
:102F100003910FA90F910DE039A1F9E76146059BD7
:102F2000049AFDF7FBF8039B8C469B5C0F9A521E9C
:102F30000F92137061460143F0D10F9807A9081A48
:102F400020300390600704D50120000484430298D8
:102F500001E0012002900399884201DD401A00E05F
:102F6000002041180290019809180098401A00901A
:102F7000E00306D42146149B139A009800F05AF8F7
:102F800086190020049008E006A9085C149A139999
:102F900090470498401C761C049001998842F3DB0A
:102FA000E0030CD52146149B139A009800F042F8D8
:102FB000861904E0149A302013999047761C0299E0
:102FC000481E02900029F5DC08E00F980F99007860
:102FD000491C0F91149A13999047761C0399481E27
:102FE00003900029F1DCFBE609280100303132337F
:102FF0003435363738396162636465660000000035
:10300000303132333435363738394142434445461E
:1030100000000000F8B5044600251E461746880447
:1030200004D405E039462020B0476D1C641EF9D554
:103030002846F8BDFFB50446002581B01E46C803EA
:1030400001D5302700E02027880404D505E0384664
:103050000399B0476D1C641EF9D5284605B0F0BD34
:103060000A68531C0B6010707047000070B515485B
:10307000042501681448016070210171902141719B
:1030800085710F21C17101210172417281720A2182
:10309000C172FFF7B7F8044601460CA0FFF74EFDDA
:1030A000002C08D0FF24F5340BA0FFF747FD204685
:1030B000FDF770FCF8E7FFF7F1F90248103885706A
:1030C00070BD000010000020740000206173746166
:1030D00074653D25640D0A006C6F726120696E692C
:1030E00074206661696C0D0A00000000F7B582B0BB
:1030F0000021234C00912178224F002902D0012980
:1031000020D110E000F0E6FA322239461E48FEF7E0
:1031100007FD01202070FDF7A9FD014660601BA09E
:10312000FFF70CFD0EE0174E0025083E3078012811
:103130000BD0FDF79BFDA0606168411A04988142A5
:1031400000D92570009805B0F0BD394614A0FFF7EE
:10315000F5FC38460399FDF723F8002808D03570B0
:10316000758001200090257032213846FDF70DF85A
:103170003570758032213846FDF707F8E2E7000028
:1031800080000020540300205C02002077616974F5
:103190005F74696D5F7374613D25640D0A00000002
:1031A00061636B3A25730D0A0000000010B501221F
:1031B00008490948FEF734FF064C08A0241F61683F
:1031C000FFF7BCFC6068032801D0022010BD01207D
:1031D00010BD00000400002000F400086661637464
:1031E0006F72795F706172616D657465725F666C34
:1031F00061673D25640000007CB501222C492D4803
:10320000FEF70EFF2A492B4802221031F830FEF754
:1032100007FF274902221031274800F0CDFB264D39
:103220000024295D25A0FFF789FC641CE4B2082C6A
:10323000F7D31F480068032838D11D491D480122D3
:10324000091D2030FEF7ECFE19491A480122083109
:103250004030FEF7E5FE1649164801220C31603079
:10326000FEF7DEFE1248001DC278817800910192BF
:103270004378027813A11948FFF770FC0C48083016
:10328000C2788178009101924378027814A11B489A
:10329000FFF764FC06480C30C278817800910192F7
:1032A0004378027816A11C48FFF758FC7CBD00004B
:1032B0004800002008F4000824000020253032785F
:1032C0000000000061742B4C414E49703D25642E76
:1032D00025642E25642E25640D0A00008C00002034
:1032E00061742B4E446F6D61696E303D25642E25EF
:1032F000642E25642E25640D0A000000B400002011
:1033000061742B4E52506F7274303D2564256425D4
:103310006425640D0A000000DC00002010B50023C5
:1033200004E0CC5C641ED4545B1CDBB28342F8DB4B
:1033300010BD10B5002304E0CC5C641CD4545B1CAD
:10334000DBB28342F8DB10BD10B50E4C0122102118
:103350002046FDF784FC7D20C000FDF71BFB00220A
:1033600008212046FDF77BFCFF20F530FDF712FB1E
:10337000012208212046FDF772FC6420FDF70AFBBC
:1033800010BD000000040050F8B55F4C7D27607848
:1033900000255E4EFF000300FFF70BFC0E08101C1B
:1033A0004D5A677079838EB3283441B3324658A1A1
:1033B0005BA0FFF79BFE012871D0A2E05CA0FFF7A5
:1033C000BDFB32465DA161A0FFF790FE0128F4D15C
:1033D000022064E062A0FFF7B1FB324665A168A05D
:1033E000FFF784FE0128E8D10B2058E068A0FFF722
:1033F000A5FB32466DA170A0FFF778FE0128DCD155
:103400000C204CE070A0FFF799FB3F48324673A1B7
:103410000C30FFF76BFE012873D10D203FE072A046
:10342000FFF78CFB324676A179A0FFF75FFE0128FB
:1034300067D1032033E07EA0FFF780FB324832469D
:103440007DA13430FFF752FE01285AD1042026E036
:103450007DA0FFF773FB2C4832467FA15C30FFF75D
:1034600045FE01284DD1052019E032467DA180A0FE
:10347000FFF73CFE012844D1062010E0324681A12E
:1034800083A0FFF733FE01283BD1072007E0324637
:1034900082A185A0FFF72AFE012832D108206070A2
:1034A0002FE03A4684A187A0FFF720FE0920607034
:1034B0003846FDF76FFA24E03846FDF76BFA3846D8
:1034C000FDF768FA3846FDF765FA3846FDF762FA07
:1034D0003846FDF75FFA3846FDF75CFA3846FDF7E7
:1034E00059FA3846FDF756FA3846FDF753FA38468A
:1034F000FDF750FA3846FDF74DFA3846FDF74AFA1F
:1035000001252846F8BD0000800000208813000037
:1035100061742B524E65746D6F64653D3000000020
:1035200061742B4E65746D6F64653D300D0A00004B
:10353000C9E8D6C3C4A3CABD0D0A000061742B52EA
:103540004E50726F547970653000000061742B4EDC
:1035500050726F54797065303D320D0A00000000E2
:1035600044484350B7FECEF1C6F7BFAAC6F40D0AD1
:103570000000000061742B52446863706400000016
:1035800061742B44686370643D310D0A00000000D3
:10359000C9E8D6C357414EB5C44950B5D8D6B7BB14
:1035A000F1C8A1B7BDCABD0D0A00000061742B525D
:1035B000446863706300000061742B446863706347
:1035C0003D310D0A00000000C9E8D6C3B1BEBBFA08
:1035D0004950B5D8D6B70D0A0000000061742B52CF
:1035E0004C414E4970000000C9E8D6C3B1BEBBFAD9
:1035F000CDF8B9D8B5D8D6B7B5D8D6B70D0A00002A
:1036000061742B524C414E49704D61736B00000048
:1036100061742B4C414E49704D61736B3D323535B1
:103620002E3235352E3235352E300D0A0000000091
:103630003132330D0A00000061742B524E446F6D1D
:1036400061696E3000000000C1B4BDD34950B5D8E7
:10365000D6B70D0A0000000061742B524E52506F15
:103660007274300061742B524E4C506F7274300083
:1036700061742B4E4C506F7274303D383838380DB1
:103680000A00000061742B52536176653D310000E1
:1036900061742B536176653D310D0A0061742B52C4
:1036A0004170706C793D310061742B4170706C79A0
:1036B0003D310D0A0000000061742B5265626F6F8E
:1036C0007400000061742B5265626F6F743D310DA0
:1036D0000A00000010B5044602E000F055F9641C31
:1036E00020780028F9D110BD13B5044B012269469A
:1036F0000348FEF773FA00981CBD0000FFFF0000AE
:10370000DC010020F8B5524DA878012822D002280B
:103710001DD004281AD1FCF719FF012816D16946DB
:103720001220FEF726FEFF211220FEF715FF684645
:103730000078010703D50220A87046A004E04006E7
:1037400004D50120A87047A0FFF7F8F9F8BDFEF7EF
:103750009FFE77E046491320FEF70BFE4548FEF733
:1037600053FEFEF795FE424C00260B3C414F06E00F
:10377000BA5D314640A0FFF7E1F9761CF6B2E07A77
:10378000B042F5D83B4AC0B21146FFF7C7FD3FA093
:10379000FFF7D4F9002606E0BA5D314636A0FFF700
:1037A000CDF9761CF6B2E07AB042F5D83F4A002156
:1037B000274B561824335B5C491CC9B23372082965
:1037C000F6D3002105E07B1856189B78491C33740A
:1037D000C9B28842F7D8354E397808365A2929D1E6
:1037E0007978A52926D13979012923D17979072931
:1037F0001BD007DC0B00FFF7DCF9071D12141818AB
:1038000018181D00132910D004DC08290DD0122926
:1038100010D10AE0202908D021290BD105E024A0ED
:1038200000E02BA0FFF78AF9E07A801DC1B2304694
:1038300000F0B6F832210F48FCF7A7FC32213046E1
:10384000FCF7A3FCFEF72AFE0420A870F8BD0000D8
:103850000000002073656E64207375636573730DDB
:103860000A0000007278207375636573730D0A0097
:103870007F00002032010020525862756666657232
:103880005B25645D3D253032780D0A00CDF8B9D84E
:10389000CAD5B5BDC0B4D7D4D3EBB1A8BEAFC6F7B7
:1038A000B5C4CAFDBEDD0D0A000000004C030020B7
:1038B000C9E8B1B8C8EBCDF8C7EBC7F3CAD5B5BDF9
:1038C0002CD7AAB7A2B5BD5765620D0A000000004B
:1038D000C9E8B1B8C8EBCDF8D7B4CCACCAD5B5BD42
:1038E0002CD7AAB7A2B5BD5765620D0A000000002B
:1038F00070B50C460546FEF7CBFD0748074AC47273
:1039000029462046FFF715FD0448FEF7F3FD04495C
:103910000420887070BD00007400002000010020A9
:1039200000000020FDF7B0F9FEF750FEFEF73CFA6C
:10393000FEF72EFAFEF78EFAFEF7ACFAFEF7C6FA9D
:10394000002201211C20FDF7E1F91C20FDF7D4F92C
:10395000002211460B20FDF7D9F90B20FDF7CCF919
:10396000FFF74AFCFFF782FBFCF71CFEFCF710FE9A
:10397000FFF7EAFCFFF708FD0128FBD1FFF7C2FEC5
:1039800000F074F8FAE7000001B5034B0122694624
:103990000248FEF723F908BDFFFF00005C0200208B
:1039A0000A4610B50146024B0248FEF717F910BD52
:1039B000FFFF00005C02002070B500230CE09C00BB
:1039C0000D5D0555651824186E786670AE78A67082
:1039D000ED785B1CE570DBB29342F0D370BD000064
:1039E00010B500680860014601A0FFF7A7F810BDF8
:1039F000253038780000000030B5002304E09C003A
:103A000005595B1C0D51DBB29342F8D330BD000069
:103A1000F0B59C4600241449069F059E1346254692
:103A20007A5D0A55641C6D1CEDB2E4B2082DF7D323
:103A300002780A55641CE2B240788854521CD0B215
:103A400002220A54401CC0B20B54401CC0B20022D7
:103A500006E063469B5C0B54401C521CC0B2D2B2C1
:103A6000B242F6D3F0BD000064010020F0B5FF4E75
:103A7000FF487278014685B0354608313A30032751
:103A80000124243503910290042A7DD006DC002A0B
:103A90000BD0012A79D0032A0FD1B2E1F4480F2AC2
:103AA000017825D0102AF7D12FE1FFF77FFB0228FC
:103AB00004D0FFF77BFB012805D0D4E17470EDA0A2
:103AC000FFF73CF8CFE10122EE49EF48FEF7A8FAF4
:103AD000EC48E64C01780834217040786070EBA027
:103AE000FFF72CF86178ECA0FFF728F87770BAE1BF
:103AF000EC480068032877D00129DED1DC48807AC1
:103B0000022870D1DA48C07A032806D0042816D0DB
:103B1000052826D00628F4D167E0E3A0FFF70EF8C9
:103B20001E21E548FCF731FBE34AD14900200B1880
:103B30001B7B1354401CC0B20428F8D38BE2DFA0D7
:103B4000FEF7FCFF1E21E248FCF71FFBE04AC849D4
:103B500000200B181B7B1354401CC0B20428F8D360
:103B6000A6E2DCA0FEF7EAFF1E21DF48FCF70DFB12
:103B7000DD4ABF4900200B181B7B1354401CC0B208
:103B80000428F8D3D94901E0D2E378E0D648FFF71A
:103B900027FFBD480122D5492038FEF74DFAC1481C
:103BA000012201460760B8488038FEF745FAAF4B5E
:103BB0003470184605220221083001950094FFF761
:103BC00027FFAA4B052218460221083001950094D0
:103BD000FFF71EFF0146C648FFF7E2FE6420FCF730
:103BE000D9FEFDF797F892E347E0C2A0FEF7A6FFE3
:103BF0009E481E212430FCF7C8FA00279C4839460D
:103C0000C019027BEA55C0A0FEF798FF7F1CFFB2E7
:103C1000082FF3D395480222C1492430FFF7ECFE68
:103C200099480222BE497830FEF706FA8F480222F0
:103C3000BB492430FFF7C0FE0027E95DB9A0FEF7BD
:103C40007DFF7F1CFFB2082FF7D3884B34701846D6
:103C500006220221083001950094FFF7D9FE834B1C
:103C6000062201950094814802210830FFF7D0FE1A
:103C700001469F48FFF794FE49E3002043E07D277B
:103C80003F013846FCF786FE3846FCF783FE38468F
:103C9000FCF780FE754B3470184601220221083073
:103CA00001950094FFF7B4FE704B012218460221E3
:103CB000083001950094FFF7ABFE01469AA0FEF78D
:103CC0003DFF002706E08A48C15D9BA0FEF736FF56
:103CD0007F1CFFB2654B0122184602210830019576
:103CE0000094FFF795FEB842EDD8604B0122019594
:103CF00000945E4802210830FFF78AFE01467C48A6
:103D0000FFF74EFE102070700CE359480129FBD1DB
:103D1000002104E04218137C491C1372C9B2428886
:103D2000083A8A42F6DC5248807A022804D03221CE
:103D30000398FCF72AFAEAE24D48C17A4B48012978
:103D4000406802D0022997D149E0032894D080A08E
:103D5000FEF7F4FE4648454E017B08363170407B45
:103D600070707FA0FEF7EAFE717881A0FEF7E6FE94
:103D70003E48022204700346114608300195009423
:103D8000FFF746FE01467EA0FEF7D8FE002606E0BD
:103D90005748815D68A0FEF7D1FE761CF6B2334B22
:103DA000022218461146083001950094FFF730FEB4
:103DB000B042EDD82D4C34480122211D883867606F
:103DC000FEF73AF920462F490830FFF709FE012295
:103DD0002C492D48FEF730F90420607097E2032843
:103DE000A9D122482249083002780B7A9A42A2D1FE
:103DF0004078497A88429ED1777065A0FEF79EFE92
:103E000085E2F068012819D165A0FEF797FE3470AD
:103E1000164B08220221981801950094FFF7F8FD2F
:103E2000124B08220221981801950094FFF7F0FD2B
:103E300001462F48FFF7B4FD0020F0600C480178E0
:103E4000012910D1007A08280ED10948417A0829A1
:103E50000AD1807A082807D11249002008600A4850
:103E600001228038A2E05DE2BCE0000000000020FA
:103E70004C030020C7EBC7F3B3F6B3A7C9E8D6C31A
:103E80000D0A00006000002088F400086465765F79
:103E90006E756D303D2578006465765F6E756D31A9
:103EA0003D25780048000020C9E8D6C34950B5D860
:103EB000D6B70D0A000000008C000020C9E8D6C368
:103EC000D4B6B3CC4950B5D8D6B70D0A000000001F
:103ED000B4000020C9E8D6C3D4B6B3CC4950B6CBA1
:103EE000BFDA0D0A00000000DC00002054000020B2
:103EF00064010020C9E8D6C350726F647563746BA7
:103F000065790D0A0000000070726F647563745F5C
:103F10006B65795B25645D3D25640D0A000000003A
:103F20005800002025630000776966696C656E3172
:103F30003D25640D0A000000092077696669545820
:103F40006275666665725B695D3D2530327800009A
:103F5000676574206465762069640D0A00000000BE
:103F6000206465765F6E756D5B305D3D2564000095
:103F7000206465765F6E756D5B315D3D2564000084
:103F8000776966696C656E3D25640D0A0000000066
:103F9000C9E8B1B8B0F3B6A8B3C9B9A60D0A000014
:103FA000B7A2CBCDD0C4CCF80D0A0000FEF744F880
:103FB000002070600122E749E748FEF73DF8E54B35
:103FC00005221B1F18460221083001950094FFF7B7
:103FD0001FFD03210398FFF7E3FC6420FCF7DAFCE4
:103FE000FCF798FE0021DD4804E04218137C491CD0
:103FF0001372C9B24288083A8A42F6DCD748807AFE
:10400000022803D0D54C01287ED080E1D148D34985
:10401000001D0A7A03789A42F7D14A7A40788242A0
:10402000F3D10846C07A032804D004282ED00528EE
:10403000EBD158E0CA48FEF781FD1E21C948FCF7C4
:10404000A4F8C849C54A002013181B7B0B54401C18
:10405000C0B20428F8D3C449C248FFF7C1FCBE4827
:104060000122C1492830FDF7E7FFBA4B34701B1F0E
:10407000184603220221083001950094FFF7C8FC7E
:10408000B44B01951B1F03220094ECE5B448143097
:10409000FEF754FD1E21B548FCF777F8B34AAF4947
:1040A00000200B181B7B1354401CC0B20428F8D30B
:1040B000AF49AE48FFF794FCA7480122AC4948300D
:1040C000FDF7BAFFA34B34701B1F184604220221D0
:1040D000083001950094FFF79BFC9E4B01951B1F38
:1040E00004220094BFE59E482C30FEF727FD1E21D8
:1040F000A048FCF74AF89F4A984900200B181B7B00
:104100001354401CC0B200E002E00428F6D339E5A5
:10411000924DE07A5A26A5272035082877D007DC6B
:104120000300FEF746FD08F40F2C4966798795F4E5
:1041300013286DD06DDC09286CD010286BD01228A4
:1041400067D1BDE0AE76EF76002005E021180A7A4F
:104150002031401C0A77C0B261888142F6D8002520
:1041600008E060192030827E294683A0FEF7E6FC35
:104170006D1CEDB26088801CA842F2D8C1E0AE761A
:10418000EF76002005E021180A7A2031401C0A77DA
:10419000C0B261888142F6D8002508E0601920305D
:1041A000827E294674A0FEF7C9FC6D1CEDB26088C2
:1041B000801CA842F2D8A4E0AE76EF76002005E09D
:1041C00021180A7A2031401C0A77C0B261888142E6
:1041D000F6D8002508E060192030827E294666A0C6
:1041E000FEF7ACFC6D1CEDB26088801CA842F2D8D2
:1041F00087E0AE76EF76002005E021180A7A2031BC
:10420000401C0A77C0B261888142F6D879E02DE07F
:1042100067E07CE038E045E0AE76EF76002005E030
:1042200021180A7A2031401C0A77C0B26188814285
:10423000F6D866E0AE76EF76002005E021180A7A1F
:104240002031401C0A77C0B261888142F6D858E01C
:10425000AE76EF76002005E021180A7A2031401C66
:104260000A77C0B261888142F6D84AE0AE76EF762E
:10427000002005E021180A7A2031401C0A77C0B2DC
:1042800061888142F6D83CE0AE76EF76002005E00A
:1042900021180A7A2031401C0A77C0B26188814215
:1042A000F6D82EE0AE76EF76002005E021180A7AE7
:1042B0002031401C0A77C0B261888142F6D820E0E4
:1042C00035A0FEF73BFCAE76EF76002005E0211826
:1042D0000A7A2031401C0A77C0B261888142F6D840
:1042E0000FE033A0FEF72AFCAE76EF76002005E063
:1042F00021180A7A2031401C0A77C0B261888142B5
:10430000F6D8A078801CC1B20298FFF7F1FA3221EA
:104310000298FBF73AFF32210398FBF736FF0F496B
:10432000002008701E212848FBF72FFF05B0F0BDC4
:10433000084B34701B1F02221846114608300195A5
:104340000094FFF765FB034B01951B1F02220094AD
:10435000CFE400000400002000F400084C0300201B
:10436000A83E00088C0000204C000020B400002073
:1043700050000020DC0000202045535038323636F3
:104380002E74656D5F52585F70446174615B256483
:104390005D3D253032780000CAD5B5BDBAF3CCA852
:1043A000B1A8BEAFD6B8C1EED3A6B4F00D0A0000D6
:1043B000CAD5B5BDBAF3CCA8B1A8BEAFD6B8C1EEC8
:1043C000CFC2B7A20D0A0000640100200000000067
:1043D00000000000010203040607080903040608A0
:1043E0000C1018203000000000010203040000003F
:1043F000104400080000002000010000CC2B000841
:10440000104500080001002000170000DC2B000808
:10441000000F00000000000000000000000000008D
:1044200080D60F1C40FF7A1D80FB651E00A1BC33A7
:10443000C0CA89360102030405060708000000000F
:10444000000000000000000000000000000000006C
:10445000000000000000000000000000000000005C
:10446000000000000000000000000000000000004C
:104470000000000000000000000020000000FA43DF
:104480006F12833F80A1031C9080020F0101014045
:1044900000000000000000000000000061742B4CD0
:1044A000414E49703D3139322E3136382E312E3958
:1044B000300D0A00000000000000000000000000B5
:1044C0000000000061742B4E446F6D61696E303DD9
:1044D0003139322E3136382E312E35320D0A000068
:1044E00000000000000000000000000061742B4E7E
:1044F00052506F7274303D363936320D0A0000006A
:1045000000000000000000000000000000000000AB
:04000005080000C12E
:00000001FF
